{"abi":[{"type":"constructor","inputs":[],"stateMutability":"nonpayable"},{"type":"function","name":"DEFAULT_ADMIN_ROLE","inputs":[],"outputs":[{"name":"","type":"bytes32","internalType":"bytes32"}],"stateMutability":"view"},{"type":"function","name":"DISPUTE_WINDOW","inputs":[],"outputs":[{"name":"","type":"uint256","internalType":"uint256"}],"stateMutability":"view"},{"type":"function","name":"LP_FEE_BPS","inputs":[],"outputs":[{"name":"","type":"uint256","internalType":"uint256"}],"stateMutability":"view"},{"type":"function","name":"RESOLVER_ROLE","inputs":[],"outputs":[{"name":"","type":"bytes32","internalType":"bytes32"}],"stateMutability":"view"},{"type":"function","name":"UPGRADER_ROLE","inputs":[],"outputs":[{"name":"","type":"bytes32","internalType":"bytes32"}],"stateMutability":"view"},{"type":"function","name":"UPGRADE_INTERFACE_VERSION","inputs":[],"outputs":[{"name":"","type":"string","internalType":"string"}],"stateMutability":"view"},{"type":"function","name":"activateEmergencyBrake","inputs":[{"name":"reason","type":"string","internalType":"string"}],"outputs":[],"stateMutability":"nonpayable"},{"type":"function","name":"addLiquidity","inputs":[{"name":"amount","type":"uint256","internalType":"uint256"}],"outputs":[{"name":"lpMinted","type":"uint256","internalType":"uint256"}],"stateMutability":"nonpayable"},{"type":"function","name":"bootstrapLiquidity","inputs":[{"name":"amount","type":"uint256","internalType":"uint256"},{"name":"provider","type":"address","internalType":"address"}],"outputs":[],"stateMutability":"nonpayable"},{"type":"function","name":"buyOutcome","inputs":[{"name":"outcomeId","type":"uint8","internalType":"uint8"},{"name":"collateralIn","type":"uint256","internalType":"uint256"},{"name":"minOut","type":"uint256","internalType":"uint256"}],"outputs":[{"name":"amountOut","type":"uint256","internalType":"uint256"}],"stateMutability":"nonpayable"},{"type":"function","name":"buyOutcomeWithEth","inputs":[{"name":"outcomeId","type":"uint8","internalType":"uint8"},{"name":"minOut","type":"uint256","internalType":"uint256"}],"outputs":[{"name":"amountOut","type":"uint256","internalType":"uint256"}],"stateMutability":"payable"},{"type":"function","name":"claimWinnings","inputs":[],"outputs":[],"stateMutability":"nonpayable"},{"type":"function","name":"closeTrading","inputs":[],"outputs":[],"stateMutability":"nonpayable"},{"type":"function","name":"collateral","inputs":[],"outputs":[{"name":"","type":"address","internalType":"contract IERC20"}],"stateMutability":"view"},{"type":"function","name":"disputeActive","inputs":[],"outputs":[{"name":"","type":"bool","internalType":"bool"}],"stateMutability":"view"},{"type":"function","name":"disputedOutcome","inputs":[],"outputs":[{"name":"","type":"uint8","internalType":"uint8"}],"stateMutability":"view"},{"type":"function","name":"endTime","inputs":[],"outputs":[{"name":"","type":"uint256","internalType":"uint256"}],"stateMutability":"view"},{"type":"function","name":"factory","inputs":[],"outputs":[{"name":"","type":"address","internalType":"address"}],"stateMutability":"view"},{"type":"function","name":"feeVault","inputs":[],"outputs":[{"name":"","type":"address","internalType":"address"}],"stateMutability":"view"},{"type":"function","name":"finalizeResolution","inputs":[],"outputs":[],"stateMutability":"nonpayable"},{"type":"function","name":"getRoleAdmin","inputs":[{"name":"role","type":"bytes32","internalType":"bytes32"}],"outputs":[{"name":"","type":"bytes32","internalType":"bytes32"}],"stateMutability":"view"},{"type":"function","name":"grantRole","inputs":[{"name":"role","type":"bytes32","internalType":"bytes32"},{"name":"account","type":"address","internalType":"address"}],"outputs":[],"stateMutability":"nonpayable"},{"type":"function","name":"hasRole","inputs":[{"name":"role","type":"bytes32","internalType":"bytes32"},{"name":"account","type":"address","internalType":"address"}],"outputs":[{"name":"","type":"bool","internalType":"bool"}],"stateMutability":"view"},{"type":"function","name":"initialize","inputs":[{"name":"p","type":"tuple","internalType":"struct MarketInitParams","components":[{"name":"marketId","type":"uint256","internalType":"uint256"},{"name":"collateral","type":"address","internalType":"address"},{"name":"outcomes","type":"address","internalType":"address"},{"name":"oracle","type":"address","internalType":"address"},{"name":"feeVault","type":"address","internalType":"address"},{"name":"factory","type":"address","internalType":"address"},{"name":"admin","type":"address","internalType":"address"},{"name":"question","type":"string","internalType":"string"},{"name":"strikePrice","type":"int256","internalType":"int256"},{"name":"yesWinsIfAbove","type":"uint8","internalType":"uint8"},{"name":"endTime","type":"uint256","internalType":"uint256"}]}],"outputs":[],"stateMutability":"nonpayable"},{"type":"function","name":"lastOraclePrice","inputs":[],"outputs":[{"name":"","type":"int256","internalType":"int256"}],"stateMutability":"view"},{"type":"function","name":"lpBalance","inputs":[{"name":"","type":"address","internalType":"address"}],"outputs":[{"name":"","type":"uint256","internalType":"uint256"}],"stateMutability":"view"},{"type":"function","name":"marketId","inputs":[],"outputs":[{"name":"","type":"uint256","internalType":"uint256"}],"stateMutability":"view"},{"type":"function","name":"marketState","inputs":[],"outputs":[{"name":"","type":"uint8","internalType":"enum IPredictionMarket.MarketState"}],"stateMutability":"view"},{"type":"function","name":"oracle","inputs":[],"outputs":[{"name":"","type":"address","internalType":"contract IChainlinkAdapter"}],"stateMutability":"view"},{"type":"function","name":"outcomes","inputs":[],"outputs":[{"name":"","type":"address","internalType":"contract GlobalOutcomeShares"}],"stateMutability":"view"},{"type":"function","name":"paused","inputs":[],"outputs":[{"name":"","type":"bool","internalType":"bool"}],"stateMutability":"view"},{"type":"function","name":"pendingWithdrawals","inputs":[{"name":"","type":"address","internalType":"address"}],"outputs":[{"name":"","type":"uint256","internalType":"uint256"}],"stateMutability":"view"},{"type":"function","name":"proposeDispute","inputs":[{"name":"proposedOutcome","type":"uint8","internalType":"uint8"}],"outputs":[],"stateMutability":"nonpayable"},{"type":"function","name":"protocolFeesAccrued","inputs":[],"outputs":[{"name":"","type":"uint256","internalType":"uint256"}],"stateMutability":"view"},{"type":"function","name":"proxiableUUID","inputs":[],"outputs":[{"name":"","type":"bytes32","internalType":"bytes32"}],"stateMutability":"view"},{"type":"function","name":"question","inputs":[],"outputs":[{"name":"","type":"string","internalType":"string"}],"stateMutability":"view"},{"type":"function","name":"removeLiquidity","inputs":[{"name":"lpAmount","type":"uint256","internalType":"uint256"}],"outputs":[{"name":"collateralOut","type":"uint256","internalType":"uint256"}],"stateMutability":"nonpayable"},{"type":"function","name":"renounceRole","inputs":[{"name":"role","type":"bytes32","internalType":"bytes32"},{"name":"callerConfirmation","type":"address","internalType":"address"}],"outputs":[],"stateMutability":"nonpayable"},{"type":"function","name":"requestResolution","inputs":[],"outputs":[],"stateMutability":"nonpayable"},{"type":"function","name":"reserveNo","inputs":[],"outputs":[{"name":"","type":"uint256","internalType":"uint256"}],"stateMutability":"view"},{"type":"function","name":"reserveYes","inputs":[],"outputs":[{"name":"","type":"uint256","internalType":"uint256"}],"stateMutability":"view"},{"type":"function","name":"resolutionProposedAt","inputs":[],"outputs":[{"name":"","type":"uint256","internalType":"uint256"}],"stateMutability":"view"},{"type":"function","name":"revokeRole","inputs":[{"name":"role","type":"bytes32","internalType":"bytes32"},{"name":"account","type":"address","internalType":"address"}],"outputs":[],"stateMutability":"nonpayable"},{"type":"function","name":"sellOutcome","inputs":[{"name":"outcomeId","type":"uint8","internalType":"uint8"},{"name":"amountIn","type":"uint256","internalType":"uint256"},{"name":"minCollateralOut","type":"uint256","internalType":"uint256"}],"outputs":[{"name":"collateralOut","type":"uint256","internalType":"uint256"}],"stateMutability":"nonpayable"},{"type":"function","name":"setSwapFeeBps","inputs":[{"name":"bps","type":"uint256","internalType":"uint256"}],"outputs":[],"stateMutability":"nonpayable"},{"type":"function","name":"strikePrice","inputs":[],"outputs":[{"name":"","type":"int256","internalType":"int256"}],"stateMutability":"view"},{"type":"function","name":"supportsInterface","inputs":[{"name":"interfaceId","type":"bytes4","internalType":"bytes4"}],"outputs":[{"name":"","type":"bool","internalType":"bool"}],"stateMutability":"view"},{"type":"function","name":"swap","inputs":[{"name":"isYes","type":"bool","internalType":"bool"},{"name":"collateralIn","type":"uint256","internalType":"uint256"},{"name":"minOut","type":"uint256","internalType":"uint256"}],"outputs":[{"name":"amountOut","type":"uint256","internalType":"uint256"}],"stateMutability":"nonpayable"},{"type":"function","name":"swapFeeBps","inputs":[],"outputs":[{"name":"","type":"uint256","internalType":"uint256"}],"stateMutability":"view"},{"type":"function","name":"totalLPSupply","inputs":[],"outputs":[{"name":"","type":"uint256","internalType":"uint256"}],"stateMutability":"view"},{"type":"function","name":"upgradeToAndCall","inputs":[{"name":"newImplementation","type":"address","internalType":"address"},{"name":"data","type":"bytes","internalType":"bytes"}],"outputs":[],"stateMutability":"payable"},{"type":"function","name":"version","inputs":[],"outputs":[{"name":"","type":"string","internalType":"string"}],"stateMutability":"pure"},{"type":"function","name":"winningOutcome","inputs":[],"outputs":[{"name":"","type":"uint8","internalType":"uint8"}],"stateMutability":"view"},{"type":"function","name":"yesWinsIfAbove","inputs":[],"outputs":[{"name":"","type":"uint8","internalType":"uint8"}],"stateMutability":"view"},{"type":"event","name":"DisputeProposed","inputs":[{"name":"disputer","type":"address","indexed":true,"internalType":"address"},{"name":"proposedOutcome","type":"uint8","indexed":false,"internalType":"uint8"}],"anonymous":false},{"type":"event","name":"EmergencyBrakeActivated","inputs":[{"name":"activator","type":"address","indexed":true,"internalType":"address"},{"name":"reason","type":"string","indexed":false,"internalType":"string"}],"anonymous":false},{"type":"event","name":"Initialized","inputs":[{"name":"version","type":"uint64","indexed":false,"internalType":"uint64"}],"anonymous":false},{"type":"event","name":"LiquidityAdded","inputs":[{"name":"provider","type":"address","indexed":true,"internalType":"address"},{"name":"collateral","type":"uint256","indexed":false,"internalType":"uint256"},{"name":"lpMinted","type":"uint256","indexed":false,"internalType":"uint256"}],"anonymous":false},{"type":"event","name":"LiquidityRemoved","inputs":[{"name":"provider","type":"address","indexed":true,"internalType":"address"},{"name":"collateral","type":"uint256","indexed":false,"internalType":"uint256"},{"name":"lpBurned","type":"uint256","indexed":false,"internalType":"uint256"}],"anonymous":false},{"type":"event","name":"MarketResolved","inputs":[{"name":"winningOutcome","type":"uint8","indexed":false,"internalType":"uint8"}],"anonymous":false},{"type":"event","name":"OutcomeBought","inputs":[{"name":"trader","type":"address","indexed":true,"internalType":"address"},{"name":"outcomeId","type":"uint8","indexed":false,"internalType":"uint8"},{"name":"amountIn","type":"uint256","indexed":false,"internalType":"uint256"},{"name":"amountOut","type":"uint256","indexed":false,"internalType":"uint256"}],"anonymous":false},{"type":"event","name":"OutcomeSold","inputs":[{"name":"trader","type":"address","indexed":true,"internalType":"address"},{"name":"outcomeId","type":"uint8","indexed":false,"internalType":"uint8"},{"name":"amountIn","type":"uint256","indexed":false,"internalType":"uint256"},{"name":"amountOut","type":"uint256","indexed":false,"internalType":"uint256"}],"anonymous":false},{"type":"event","name":"Paused","inputs":[{"name":"account","type":"address","indexed":false,"internalType":"address"}],"anonymous":false},{"type":"event","name":"ResolutionProposed","inputs":[{"name":"winningOutcome","type":"uint8","indexed":false,"internalType":"uint8"},{"name":"oraclePrice","type":"int256","indexed":false,"internalType":"int256"}],"anonymous":false},{"type":"event","name":"RoleAdminChanged","inputs":[{"name":"role","type":"bytes32","indexed":true,"internalType":"bytes32"},{"name":"previousAdminRole","type":"bytes32","indexed":true,"internalType":"bytes32"},{"name":"newAdminRole","type":"bytes32","indexed":true,"internalType":"bytes32"}],"anonymous":false},{"type":"event","name":"RoleGranted","inputs":[{"name":"role","type":"bytes32","indexed":true,"internalType":"bytes32"},{"name":"account","type":"address","indexed":true,"internalType":"address"},{"name":"sender","type":"address","indexed":true,"internalType":"address"}],"anonymous":false},{"type":"event","name":"RoleRevoked","inputs":[{"name":"role","type":"bytes32","indexed":true,"internalType":"bytes32"},{"name":"account","type":"address","indexed":true,"internalType":"address"},{"name":"sender","type":"address","indexed":true,"internalType":"address"}],"anonymous":false},{"type":"event","name":"Unpaused","inputs":[{"name":"account","type":"address","indexed":false,"internalType":"address"}],"anonymous":false},{"type":"event","name":"Upgraded","inputs":[{"name":"implementation","type":"address","indexed":true,"internalType":"address"}],"anonymous":false},{"type":"event","name":"WinningsClaimed","inputs":[{"name":"account","type":"address","indexed":true,"internalType":"address"},{"name":"amount","type":"uint256","indexed":false,"internalType":"uint256"}],"anonymous":false},{"type":"error","name":"AccessControlBadConfirmation","inputs":[]},{"type":"error","name":"AccessControlUnauthorizedAccount","inputs":[{"name":"account","type":"address","internalType":"address"},{"name":"neededRole","type":"bytes32","internalType":"bytes32"}]},{"type":"error","name":"AddressEmptyCode","inputs":[{"name":"target","type":"address","internalType":"address"}]},{"type":"error","name":"AddressInsufficientBalance","inputs":[{"name":"account","type":"address","internalType":"address"}]},{"type":"error","name":"AlreadyResolved","inputs":[]},{"type":"error","name":"ERC1967InvalidImplementation","inputs":[{"name":"implementation","type":"address","internalType":"address"}]},{"type":"error","name":"ERC1967NonPayable","inputs":[]},{"type":"error","name":"EnforcedPause","inputs":[]},{"type":"error","name":"ExpectedPause","inputs":[]},{"type":"error","name":"FailedInnerCall","inputs":[]},{"type":"error","name":"InsufficientLiquidity","inputs":[]},{"type":"error","name":"InsufficientOutput","inputs":[]},{"type":"error","name":"InvalidInitialization","inputs":[]},{"type":"error","name":"InvalidOutcome","inputs":[]},{"type":"error","name":"MarketNotOpen","inputs":[]},{"type":"error","name":"MarketStillOpen","inputs":[]},{"type":"error","name":"NotInDisputeWindow","inputs":[]},{"type":"error","name":"NotInitializing","inputs":[]},{"type":"error","name":"NothingToClaim","inputs":[]},{"type":"error","name":"ReentrancyGuardReentrantCall","inputs":[]},{"type":"error","name":"ResolutionTooEarly","inputs":[]},{"type":"error","name":"SafeERC20FailedOperation","inputs":[{"name":"token","type":"address","internalType":"address"}]},{"type":"error","name":"SlippageExceeded","inputs":[]},{"type":"error","name":"UUPSUnauthorizedCallContext","inputs":[]},{"type":"error","name":"UUPSUnsupportedProxiableUUID","inputs":[{"name":"slot","type":"bytes32","internalType":"bytes32"}]},{"type":"error","name":"Unauthorized","inputs":[]},{"type":"error","name":"ZeroAmount","inputs":[]},{"type":"error","name":"ZeroLiquidity","inputs":[]}],"bytecode":{"object":"0x60a080604052346100d25730608052601e6001557ff0c57e16840df040f15088dc2f81fe391c3923bec73e23a9662efc9c229c6a009081549060ff8260401c166100c357506001600160401b036002600160401b03198282160161007e575b604051612eef9081620000d7823960805181818161126601526114ec0152f35b6001600160401b031990911681179091556040519081527fc7f505b2f371ae2175ee4913f4499e1f2633a7b5936321eed1cdaeb6115181d290602090a15f808061005e565b63f92ee8a960e01b8152600490fd5b5f80fdfe6080604081815260049182361015610015575f80fd5b5f925f3560e01c91826301ffc9a71461204d57508163073ce78514611dfa57816308c84c2114611daf57816308fb1b7714611d705781630b3e672f14611d4e5781630e36e04a14611d25578163248a9ca314611cee57816327730ea6146118db5781632f2ff15d146118b15781632ffdaf89146118925781633197cbb614611873578163349f71731461185457816336568abe1461180e5781633fad9ae01461172e578163478222c2146117055781634f1ef2861461147057816351c6590a146112cd57816352d1902d1461125157816353aaf54c1461123257816354fd4d50146111f55781635c975abb146111c55781636ca41c5c146111a25781636ed71ede14611185578163715ebb9a1461116357816378fab260146111285781637dc0d1d0146111005781637ef3bd8f146110055781638929e29d14610f035781638fb182aa14610ee457816391d1485414610e9457816392c5466d14610e6d5781639349d05114610d9057816397a9895514610d4e5781639b34ae0314610d2c5781639c8f9f2314610b73578163a217fddf14610b58578163a525821014610b3c578163ad3cb1cc14610afb578163b401faf1146108bc578163b621e75a1461089d578163bc9bcb251461087e578163c45a015514610855578163c52987cf14610836578163d1a8671114610817578163d547741f146107cb578163d8dfeb45146107a2578163e29e09741461076a578163e3539f0914610614578163e4a5d8b31461057c578163e72e83ce14610520578163f0d677d71461030557508063f3f43703146102ce578063f585dc57146102b15763f72c0d8b14610274575f80fd5b346102ad57816003193601126102ad57602090517f189ab7a9244df0848122154315af71fe140f3db0fe014031783b0946b8c9d2e38152f35b5080fd5b50346102ad57816003193601126102ad57602090516202a3008152f35b50346102ad5760203660031901126102ad5760209181906001600160a01b036102f56120e9565b1681526014845220549051908152f35b90503461051c578160031936011261051c578035916103226120d3565b60065490936001600160a01b03939091841633036104ea57600e5490811580806104e1575b156104aa57831561049b578360011c9061036382600c54612245565b9182600c5561037d6103758288612252565b600d54612245565b9182600d555f146103e95750505050507fac1d76749e5447b7b16f5ab61447e1bd502f3bb4807af3b28e620d1700a6ee459281945b1693845f52600f602052825f206103ca828254612245565b90556103d881600e54612245565b600e5582519182526020820152a280f35b908161040b6104056103fe6104159587612252565b9289612252565b83612252565b0292029385612200565b928181111561048c579061042891612252565b9060018201809211610479575061043e91612227565b92831561046e575b7fac1d76749e5447b7b16f5ab61447e1bd502f3bb4807af3b28e620d1700a6ee4593946103b2565b600a82049350610446565b601190634e487b7160e01b5f525260245ffd5b50505061043e90600190612227565b508351630200e8a960e31b8152fd5b845162461bcd60e51b815260208184015260116024820152700696e76616c696420626f6f74737472617607c1b6044820152606490fd5b50831515610347565b606490602084519162461bcd60e51b8352820152600c60248201526b6f6e6c7920666163746f727960a01b6044820152fd5b8280fd5b90503461051c57602036600319011261051c5780359161053e612990565b6103e8831161054f57505060015580f35b906020606492519162461bcd60e51b835282015260076024820152666d61782031302560c81b6044820152fd5b9190503461051c57602036600319011261051c5761059861209f565b9160ff600b54166006811015610601576003036105f3575061010060ff6013549316809361ffff19161717601355519081527f8903b2139b945da121d43f981c2ebf3007e7ca9d4c5c891df6cc1e14afd08f8660203392a280f35b905163d32a803960e01b8152fd5b634e487b7160e01b855260218252602485fd5b9190503461051c578260031936011261051c5761062f6129e6565b600b5460ff81166006811015610757576001811415908161074d575b50610735575b82548251630c348ad760e21b815293839185919082906001600160a01b03165afa801561072b5784906106da575b7f4dd91642056ffbc07bfd0104b496c43bcf3aac48c93cc2ee12f4833c78b54521935080601155600360ff6106b383612cdf565b169260ff199084826010541617601055426012551617600b5582519182526020820152a180f35b508183813d8311610724575b6106f0818361217b565b81010312610720577f4dd91642056ffbc07bfd0104b496c43bcf3aac48c93cc2ee12f4833c78b54521925161067f565b8380fd5b503d6106e6565b82513d86823e3d90fd5b600a54421015610651575051633c04f06b60e01b8152fd5b905015155f61064b565b634e487b7160e01b855260218452602485fd5b5050346102ad5760203660031901126102ad5760209181906001600160a01b036107926120e9565b168152600f845220549051908152f35b5050346102ad57816003193601126102ad5760025490516001600160a01b039091168152602090f35b9190503461051c578060031936011261051c57610813913561080e60016107f06120d3565b938387525f80516020612e5a83398151915260205286200154612a5f565b612a8d565b5080f35b5050346102ad57816003193601126102ad57602090600e549051908152f35b5050346102ad57816003193601126102ad576020906008549051908152f35b5050346102ad57816003193601126102ad5760065490516001600160a01b039091168152602090f35b5050346102ad57816003193601126102ad576020906012549051908152f35b5050346102ad57816003193601126102ad576020906015549051908152f35b90503461051c578260031936011261051c576108d6612343565b60ff600b54166006811015610ae8578103610ada576108f960ff6010541661239c565b6003548351627eeac760e11b81523384820190815260208181018590526001600160a01b0396909490939091908716908590849081906040010381845afa928315610ad0578893610aa1575b508215610a9157908188923b1561051c578451637a94c56560e11b815233818901908152602081019390935260408301859052918391839182908490829060600103925af18015610a8757610a6f575b505080938386600254169160248551809481936370a0823160e01b835230908301525afa908115610a65578791610a34575b50809111610a2a575b50610a0f837f1a31e733a172afcf46074b3106c17f0c298e226442682a03c1e99ce256139ec294953388526014855281848920553390600254166124cb565b519283523392a260015f80516020612e9a8339815191525580f35b9250610a0f6109d0565b90508381813d8311610a5e575b610a4b818361217b565b81010312610a5a57515f6109c7565b5f80fd5b503d610a41565b83513d89823e3d90fd5b610a7890612137565b610a8357855f610995565b8580fd5b84513d84823e3d90fd5b83516312d37ee560e31b81528690fd5b9092508481813d8311610ac9575b610ab9818361217b565b81010312610a5a5751915f610945565b503d610aaf565b84513d8a823e3d90fd5b90516336ab81e160e11b8152fd5b634e487b7160e01b845260218252602484fd5b5050346102ad57816003193601126102ad578051610b3891610b1c8261215f565b60058252640352e302e360dc1b6020830152519182918261219d565b0390f35b5050346102ad57816003193601126102ad5760209051601e8152f35b5050346102ad57816003193601126102ad5751908152602090f35b8383346102ad5760203660031901126102ad578235610b90612343565b610b98612372565b60ff600b54166006811015610d1957610d095780158015610cf5575b610ce557338352600f602052818320610bce828254612252565b9055610bdc81600e54612252565b80600e55600c5490600d5490610c0584610bff610bf98587612245565b82612200565b92612245565b9060018201809211610cd2576020975090610c1f91612227565b948560011c92838082115f14610cca57610c3891612252565b600c55610c458387612252565b821115610cc25750610c5a610c609286612252565b90612252565b600d55600254610c7c90849033906001600160a01b03166124cb565b815190838252848201527f96cd817c6329656790ef8fba7675405193677d39619571282f5e21f3a98cd059823392a260015f80516020612e9a8339815191525551908152f35b915050610c60565b505080610c38565b634e487b7160e01b875260118852602487fd5b8151630200e8a960e31b81528490fd5b50338352600f602052808284205410610bb4565b815163300b4e3360e21b81528490fd5b634e487b7160e01b845260218552602484fd5b5050346102ad57816003193601126102ad5760209060ff601054169051908152f35b9190503461051c578260031936011261051c57610d696129e6565b600a544210610d835782600160ff19600b541617600b5580f35b51633c04f06b60e01b8152fd5b90503461051c578260031936011261051c57610daa6129e6565b600b5460ff81166006811015610e5a57600303610e38576012546202a3008101809111610e47574210610e3857916020917f94e5f71d5001613eb5e4ad876acb1da127582270c692c34fbcf810be21728b1d9360135460ff8160081c16610e24575b5060ff191617600b5560ff601054169051908152a180f35b60ff1660ff1960105416176010555f610e0c565b50905163d32a803960e01b8152fd5b634e487b7160e01b855260118352602485fd5b634e487b7160e01b855260218352602485fd5b5050346102ad57816003193601126102ad5760209060ff60135460081c1690519015158152f35b90503461051c578160031936011261051c5781602093610eb26120d3565b923581525f80516020612e5a8339815191528552209060018060a01b03165f52825260ff815f20541690519015158152f35b5050346102ad57816003193601126102ad57602090600c549051908152f35b90508160031936011261051c57610f1861209f565b92610f21612343565b610f29612372565b60ff600b54166006811015610ff257610fe357600160ff851611610fd4573415610fc5576002548351630d0e30db60e41b6020820190815284825283926001600160a01b031691610f798161215f565b519134905af1610f87612314565b5015610fb75750610f9f602092602435903490612b65565b9060015f80516020612e9a8339815191525551908152f35b9051630200e8a960e31b8152fd5b509051630200e8a960e31b8152fd5b50905163c74a206d60e01b8152fd5b50905163300b4e3360e21b8152fd5b506021602492634e487b7160e01b835252fd5b9190503461051c57602036600319011261051c57813567ffffffffffffffff928382116110fc57366023830112156110fc57810135928311610720573660248483010111610720577f4b30ff638797f63b85505af8c25c3f4acd8bfabc01aebc065ace1f91db4b650a91611077612990565b60ff19600581600b541617600b5561108d612372565b60015f80516020612e7a833981519152918254161790557f62e78cea01bee320cd4e420270b5ea74000d11b0c9f74754ebdbfc544b05a25860208251338152a183602482519360208552826020860152018284013784818584010152813394601f80199101168101030190a280f35b8480fd5b90503461051c578260031936011261051c575490516001600160a01b03909116815260209150f35b5050346102ad57816003193601126102ad57602090517f92a19c77d2ea87c7f81d50c74403cb2f401780f3ad919571121efe2bdb427eb18152f35b5050346102ad57816003193601126102ad5760209060ff601354169051908152f35b5050346102ad57816003193601126102ad57602091549051908152f35b5050346102ad576020906111be6111b8366120af565b91612273565b9051908152f35b5050346102ad57816003193601126102ad5760209060ff5f80516020612e7a833981519152541690519015158152f35b5050346102ad57816003193601126102ad578051610b38916112168261215f565b60058252640312e302e360dc1b6020830152519182918261219d565b5050346102ad57816003193601126102ad57602090600d549051908152f35b8284346112ca57806003193601126112ca57507f00000000000000000000000000000000000000000000000000000000000000006001600160a01b031630036112bd57602090517f360894a13ba1a3210667c828492db98dca3e2076cc3735a920a3ca505d382bbc8152f35b5163703e46dd60e11b8152fd5b80fd5b8383346102ad5760203660031901126102ad578235916112eb612343565b6112f3612372565b60ff600b541690600682101561145d575061144e57811561143f57600254611329908390309033906001600160a01b0316612b0c565b8160011c9261133a84600c54612245565b80600c5561134b6103758686612252565b80600d55600e549586155f146113d1575050505060209250815b335f52600f8452815f2061137a848254612245565b905561138883600e54612245565b600e55815190815282848201527fac1d76749e5447b7b16f5ab61447e1bd502f3bb4807af3b28e620d1700a6ee45823392a260015f80516020612e9a8339815191525551908152f35b90816113e66104056103fe6113f09587612252565b0292029585612200565b948181111561142e579061140391612252565b9060018201809211610479575060209361141d9190612227565b918261136557600a81049250611365565b50505061141d602093600190612227565b51630200e8a960e31b81529050fd5b5163300b4e3360e21b81529050fd5b634e487b7160e01b815260218552602490fd5b9180915060031936011261051c576114866120e9565b90602493843567ffffffffffffffff81116102ad57366023820112156102ad5780850135936114b4856121e4565b6114c08551918261217b565b85815260209586820193368a8383010111610a83578186928b8a93018737830101526001600160a01b037f000000000000000000000000000000000000000000000000000000000000000081163081149081156116d7575b506116c7577f189ab7a9244df0848122154315af71fe140f3db0fe014031783b0946b8c9d2e3805f525f80516020612e5a8339815191528852865f20335f52885260ff875f205416156116aa575085516352d1902d60e01b81529083169680828a818b5afa918291879361167a575b50506115a35750505050505191634c9c8ce360e01b8352820152fd5b86899689927f360894a13ba1a3210667c828492db98dca3e2076cc3735a920a3ca505d382bbc908181036116655750853b156116505780546001600160a01b0319168317905551869392917fbc7cd75a20ee27fd9adebab32041f755214dbc6bffa90cc0225b39da2e5c2d3b8580a28251156116345750506108139382915190845af461162e612314565b91612dd6565b9350935050503461164457505080f35b63b398979f60e01b8152fd5b5051634c9c8ce360e01b815291820152859150fd5b848a91845191632a87526960e21b8352820152fd5b9080929350813d83116116a3575b611692818361217b565b81010312610a835751905f80611587565b503d611688565b865163e2517d3f60e01b815233818b0152808b0191909152604490fd5b855163703e46dd60e11b81528890fd5b9050817f360894a13ba1a3210667c828492db98dca3e2076cc3735a920a3ca505d382bbc541614155f611518565b5050346102ad57816003193601126102ad5760055490516001600160a01b039091168152602090f35b8284346112ca57806003193601126112ca578151908060075490611751826120ff565b808552916020916001918281169081156117e15750600114611789575b610b38868861177f8289038361217b565b519182918261219d565b9350600784527fa66cc928b5edb82af9bd49922954155ab7b0942694bea4ce44661d9a8736c6885b8385106117ce5750505050810160200161177f82610b388661176e565b80548686018401529382019381016117b1565b9050610b389795508693506020925061177f94915060ff191682840152151560051b82010192948661176e565b8383346102ad57806003193601126102ad576118286120d3565b90336001600160a01b038316036118455750610813919235612a8d565b5163334bd91960e11b81528390fd5b5050346102ad57816003193601126102ad576020906011549051908152f35b5050346102ad57816003193601126102ad57602090600a549051908152f35b5050346102ad57816003193601126102ad576020906001549051908152f35b9190503461051c578060031936011261051c5761081391356118d660016107f06120d3565b612920565b90503461051c57600319602036820181136110fc57823567ffffffffffffffff93848211611cea5761016082360394850112611cea577ff0c57e16840df040f15088dc2f81fe391c3923bec73e23a9662efc9c229c6a009485549460ff86891c16159482871696871580611ce3575b60018099149081611cd9575b159081611cd0575b50611cc05767ffffffffffffffff1981168817895586611ca1575b50611982612d95565b61198a612d95565b611992612d95565b865f80516020612e9a833981519152556119aa612d95565b6119b2612d95565b60ff19935f80516020612e7a8339815191528581541690556119d2612d95565b808601358b556024926001600160a01b03806119ef868a0161225f565b16906bffffffffffffffffffffffff60a01b9182600254161760025580611a1860448b0161225f565b1682600354161760035580611a2f60648b0161225f565b168285541617845580611a4460848b0161225f565b16826005541617600555611a5a60a48a0161225f565b1690600654161760065560e48701359060221901811215611c9d57860190810135938411611c99578336036024820113611c99578392611a9b6007546120ff565b601f8111611c25575b508b92601f8511600114611b9c5750508a92611b8e575b50505f19600383901b1c191690851b176007555b61010482013560085561012482013560ff8116809103611b8a57611b40928260c492611b3b946009541617600955610144820135600a55600b5416600b55601e865501611b23611b1e8261225f565b612743565b50611b35611b308261225f565b6127cd565b5061225f565b61287a565b50611b49578380f35b7fc7f505b2f371ae2175ee4913f4499e1f2633a7b5936321eed1cdaeb6115181d29260209268ff000000000000000019815416905551908152a15f80808380f35b8780fd5b602492500101355f80611abb565b60078d528995507fa66cc928b5edb82af9bd49922954155ab7b0942694bea4ce44661d9a8736c6889391601f198616918e915b838310611c0a575050508411611bee575b505050811b01600755611acf565b01602401355f19600384901b60f8161c191690555f8080611be0565b84860181013587558c98909601959381019391810191611bcf565b909192935060078c527fa66cc928b5edb82af9bd49922954155ab7b0942694bea4ce44661d9a8736c688601f860160051c81019160208710611c8f575b869594939291601f8c920160051c01915b828110611c81575050611aa4565b8e81558796508b9101611c73565b9091508190611c62565b8a80fd5b8b80fd5b68ffffffffffffffffff1916680100000000000000011788555f611979565b895163f92ee8a960e01b81528590fd5b9050155f61195e565b303b159150611956565b508661194a565b8680fd5b90503461051c57602036600319011261051c57816020936001923581525f80516020612e5a83398151915285522001549051908152f35b5050346102ad57816003193601126102ad5760035490516001600160a01b039091168152602090f35b5050346102ad57816003193601126102ad5760209060ff600954169051908152f35b8383346102ad57816003193601126102ad5760ff600b54169051916006821015611d9c57602083838152f35b634e487b7160e01b815260218452602490fd5b90503461051c57606036600319011261051c5735801515810361051c5791602092611dd8612372565b15611def576111be905b6044359060243590612273565b506111be6001611de2565b91905034610a5a57611e0b366120af565b611e13612343565b611e1b612372565b60ff600b5416600681101561203a5761202a5760ff83166001811161201a576003546001600160a01b039690871690611e538661239c565b90823b15610a5a578751637a94c56560e11b81523391810191825260208201929092526040810186905290915f9183919082908490829060600103925af18015612010579160209893917f27a8474b04b768767f2d2e622408916b8aa9097ed46410216d0cd06162bf55409593611ff3575b5090611f65611f6a9215805f14611fe157611ef1611eea600c54600d54905b88612451565b93846124b2565b611f1a612710611f0360015486612200565b048094611f1282601554612245565b601555612252565b998a96879215611fa157611f3087600c54612245565b600c55600d54611f408685612245565b811115611f9b57611f569150610c5a8685612245565b600d555b3390600254166124cb565b61250e565b845160ff949094168452602084015260408301523391606090a260015f80516020612e9a8339815191525551908152f35b50611f56565b611fad87600d54612245565b600d55600c54611fbd8685612245565b811115611fdb57611fd39150610c5a8685612245565b600c55611f5a565b50611fd3565b611ef1611eea600d54600c5490611ee4565b611f6a9291945061200390612137565b611f655f94919250611ec5565b86513d5f823e3d90fd5b845163c74a206d60e01b81528690fd5b5050505163300b4e3360e21b8152fd5b602186634e487b7160e01b5f525260245ffd5b9034610a5a576020366003190112610a5a57359063ffffffff60e01b8216809203610a5a57602091637965db0b60e01b811490811561208e575b5015158152f35b6301ffc9a760e01b14905083612087565b6004359060ff82168203610a5a57565b6060906003190112610a5a5760043560ff81168103610a5a57906024359060443590565b602435906001600160a01b0382168203610a5a57565b600435906001600160a01b0382168203610a5a57565b90600182811c9216801561212d575b602083101461211957565b634e487b7160e01b5f52602260045260245ffd5b91607f169161210e565b67ffffffffffffffff811161214b57604052565b634e487b7160e01b5f52604160045260245ffd5b6040810190811067ffffffffffffffff82111761214b57604052565b90601f8019910116810190811067ffffffffffffffff82111761214b57604052565b602080825282518183018190529093925f5b8281106121d057505060409293505f838284010152601f8019910116010190565b8181018601518482016040015285016121af565b67ffffffffffffffff811161214b57601f01601f191660200190565b8181029291811591840414171561221357565b634e487b7160e01b5f52601160045260245ffd5b8115612231570490565b634e487b7160e01b5f52601260045260245ffd5b9190820180921161221357565b9190820391821161221357565b356001600160a01b0381168103610a5a5790565b919061227d612343565b612285612372565b60ff600b54166006811015612300576122ee57600160ff8416116122dc576002546122c893906122c3908390309033906001600160a01b0316612b0c565b612b65565b9060015f80516020612e9a83398151915255565b60405163c74a206d60e01b8152600490fd5b60405163300b4e3360e21b8152600490fd5b634e487b7160e01b5f52602160045260245ffd5b3d1561233e573d90612325826121e4565b91612333604051938461217b565b82523d5f602084013e565b606090565b5f80516020612e9a83398151915260028154146123605760029055565b604051633ee5aeb560e01b8152600490fd5b60ff5f80516020612e7a833981519152541661238a57565b60405163d93c066560e01b8152600490fd5b60ff166124175760018060a01b036003541660205f54602460405180948193630e729dc360e41b835260048301525afa90811561240c575f916123dd575090565b90506020813d602011612404575b816123f86020938361217b565b81010312610a5a575190565b3d91506123eb565b6040513d5f823e3d90fd5b60018060a01b036003541660205f54602460405180948193633c39b35760e01b835260048301525afa90811561240c575f916123dd575090565b9182156124a05781158015612498575b612486576124796103e5926103e88486029102612245565b9283156124865702020490565b60405163bb55fd2760e01b8152600490fd5b508015612461565b604051631f2a200560e01b8152600490fd5b106124b957565b60405163bb2875c360e01b8152600490fd5b60405163a9059cbb60e01b60208201526001600160a01b0392909216602483015260448083019390935291815261250c9161250760648361217b565b612d24565b565b8015808015612730575b61272c57601e8202918204601e1417156122135760649004806125385750565b60025460055460408051636eb1769f60e11b81523060048201526001600160a01b03928316602480830182905292959460209492908316908581604481855afa80156127225787905f906126f1575b6125919250612245565b8751925f808886016125d8876125ca63095ea7b360e01b97888552878d840160209093929193604081019460018060a01b031681520152565b03601f19810189528861217b565b86519082875af16125e7612314565b816126c1575b50806126b7575b1561265d575b505050506005541693805192830193630ebdac0960e41b855282840152818352606083019183831067ffffffffffffffff84111761264a575052515f9283929083905af150612647612314565b50565b634e487b7160e01b5f9081526041600452fd5b88519187830152858201525f6044820152604481526080810181811067ffffffffffffffff8211176126a45761269b939291612507918a5282612d24565b5f8080806125fa565b85634e487b7160e01b5f5260416004525ffd5b50823b15156125f4565b805180159250899083156126d9575b5050505f6125ed565b6126e99350820181019101612d0c565b5f88816126d0565b50508581813d831161271b575b612708818361217b565b81010312610a5a57866125919151612587565b503d6126fe565b88513d5f823e3d90fd5b5050565b506005546001600160a01b031615612518565b6001600160a01b03165f8181527fb7db2dd08fcb62d0c9e08c51941cae53c267786a0b75803fb7960902fc8ef97d60205260409020545f80516020612e5a8339815191529060ff166127c7575f805260205260405f20815f5260205260405f20600160ff1982541617905533905f5f80516020612e3a8339815191528180a4600190565b50505f90565b6001600160a01b03165f8181527fab71e3f32666744d246edff3f96e4bdafee2e9867098cdd118a979a7464786a860205260409020547f189ab7a9244df0848122154315af71fe140f3db0fe014031783b0946b8c9d2e391905f80516020612e5a8339815191529060ff1661287357825f5260205260405f20815f5260205260405f20600160ff1982541617905533915f80516020612e3a8339815191525f80a4600190565b5050505f90565b6001600160a01b03165f8181527f756534422b3cb82a54d88d2dca71cfb1a3297222856e6ddc952d9ca5a7fc4b8860205260409020547f92a19c77d2ea87c7f81d50c74403cb2f401780f3ad919571121efe2bdb427eb191905f80516020612e5a8339815191529060ff1661287357825f5260205260405f20815f5260205260405f20600160ff1982541617905533915f80516020612e3a8339815191525f80a4600190565b90815f525f80516020612e5a8339815191528060205260405f209160018060a01b031691825f5260205260ff60405f205416155f1461287357825f5260205260405f20815f5260205260405f20600160ff1982541617905533915f80516020612e3a8339815191525f80a4600190565b335f9081527fb7db2dd08fcb62d0c9e08c51941cae53c267786a0b75803fb7960902fc8ef97d602052604090205460ff16156129c857565b60405163e2517d3f60e01b81523360048201525f6024820152604490fd5b335f9081527f756534422b3cb82a54d88d2dca71cfb1a3297222856e6ddc952d9ca5a7fc4b8860205260409020547f92a19c77d2ea87c7f81d50c74403cb2f401780f3ad919571121efe2bdb427eb19060ff1615612a415750565b6044906040519063e2517d3f60e01b82523360048301526024820152fd5b805f525f80516020612e5a83398151915260205260405f20335f5260205260ff60405f20541615612a415750565b90815f525f80516020612e5a8339815191528060205260405f209160018060a01b031691825f5260205260ff60405f2054165f1461287357825f5260205260405f20815f5260205260405f2060ff19815416905533917ff6391f5c32d9c69d2a47ea670b442974b53935d1edc7fd64eb21e047a839171b5f80a4600190565b6040516323b872dd60e01b60208201526001600160a01b03928316602482015292909116604483015260648083019390935291815260a081019181831067ffffffffffffffff84111761214b5761250c92604052612d24565b9192919060ff821615908115612ccd57612b90612b89600d54600c54905b84612451565b95866124b2565b612710612b9f60015483612200565b0491612bad83601554612245565b60155515612c9957612bc181600d54612245565b600d55600c548580821115612c9157612bd991612252565b600c555b6003546001600160a01b031690612bf38461239c565b91803b15610a5a57604051630ab714fb60e11b81523360048201526024810193909352604483018790525f908390606490829084905af1801561240c577f74d52361753b43a736d9d15278317598b08d0f0031c888388708d52ae2a4fde2938793612c6392612c82575b5061250e565b6040805160ff95909516855260208501919091528301523391606090a2565b612c8b90612137565b5f612c5d565b50505f612bd9565b612ca581600c54612245565b600c55600d548580821115612cc557612cbd91612252565b600d55612bdd565b50505f612cbd565b612b90612b89600c54600d5490612b83565b60085412600160ff6009541614612cfe5715612cfa57600190565b5f90565b15612d07575f90565b600190565b90816020910312610a5a57518015158103610a5a5790565b5f80612d4c9260018060a01b03169360208151910182865af1612d45612314565b9083612dd6565b8051908115159182612d7a575b5050612d625750565b60249060405190635274afe760e01b82526004820152fd5b612d8d9250602080918301019101612d0c565b155f80612d59565b60ff7ff0c57e16840df040f15088dc2f81fe391c3923bec73e23a9662efc9c229c6a005460401c1615612dc457565b604051631afcd79f60e31b8152600490fd5b90612dfd5750805115612deb57805190602001fd5b604051630a12f52160e11b8152600490fd5b81511580612e30575b612e0e575090565b604051639996b31560e01b81526001600160a01b039091166004820152602490fd5b50803b15612e0656fe2f8788117e7eff1d82e926ec794901d17c78024a50270940304540a733656f0d02dd7bc7dec4dceedda775e58dd541e08a116c6c53815c0bd028192f7b626800cd5ed15c6e187e77e9aee88184c21f4f2182ab5827cb3b7e07fbedcd63f033009b779b17422d0df92223018b32b4d1fa46e071723d6817e2486d003becc55f00a26469706673582212209b4bf0ea455d458264fae006a37431e52b6d87a8b491393a311c5cacbca6ed4264736f6c63430008180033","linkReferences":{}},"methodIdentifiers":{"DEFAULT_ADMIN_ROLE()":"a217fddf","DISPUTE_WINDOW()":"f585dc57","LP_FEE_BPS()":"a5258210","RESOLVER_ROLE()":"78fab260","UPGRADER_ROLE()":"f72c0d8b","UPGRADE_INTERFACE_VERSION()":"ad3cb1cc","activateEmergencyBrake(string)":"7ef3bd8f","addLiquidity(uint256)":"51c6590a","bootstrapLiquidity(uint256,address)":"f0d677d7","buyOutcome(uint8,uint256,uint256)":"6ca41c5c","buyOutcomeWithEth(uint8,uint256)":"8929e29d","claimWinnings()":"b401faf1","closeTrading()":"97a98955","collateral()":"d8dfeb45","disputeActive()":"92c5466d","disputedOutcome()":"715ebb9a","endTime()":"3197cbb6","factory()":"c45a0155","feeVault()":"478222c2","finalizeResolution()":"9349d051","getRoleAdmin(bytes32)":"248a9ca3","grantRole(bytes32,address)":"2f2ff15d","hasRole(bytes32,address)":"91d14854","initialize((uint256,address,address,address,address,address,address,string,int256,uint8,uint256))":"27730ea6","lastOraclePrice()":"349f7173","lpBalance(address)":"e29e0974","marketId()":"6ed71ede","marketState()":"08fb1b77","oracle()":"7dc0d1d0","outcomes()":"0e36e04a","paused()":"5c975abb","pendingWithdrawals(address)":"f3f43703","proposeDispute(uint8)":"e4a5d8b3","protocolFeesAccrued()":"b621e75a","proxiableUUID()":"52d1902d","question()":"3fad9ae0","removeLiquidity(uint256)":"9c8f9f23","renounceRole(bytes32,address)":"36568abe","requestResolution()":"e3539f09","reserveNo()":"53aaf54c","reserveYes()":"8fb182aa","resolutionProposedAt()":"bc9bcb25","revokeRole(bytes32,address)":"d547741f","sellOutcome(uint8,uint256,uint256)":"073ce785","setSwapFeeBps(uint256)":"e72e83ce","strikePrice()":"c52987cf","supportsInterface(bytes4)":"01ffc9a7","swap(bool,uint256,uint256)":"08c84c21","swapFeeBps()":"2ffdaf89","totalLPSupply()":"d1a86711","upgradeToAndCall(address,bytes)":"4f1ef286","version()":"54fd4d50","winningOutcome()":"9b34ae03","yesWinsIfAbove()":"0b3e672f"},"id":1}