{"abi":[{"type":"constructor","inputs":[{"name":"implementation_","type":"address","internalType":"address"},{"name":"outcomeShares_","type":"address","internalType":"address"},{"name":"collateral_","type":"address","internalType":"address"},{"name":"oracle_","type":"address","internalType":"address"},{"name":"feeVault_","type":"address","internalType":"address"},{"name":"admin","type":"address","internalType":"address"},{"name":"timelock_","type":"address","internalType":"address"},{"name":"marketOracle_","type":"address","internalType":"address"}],"stateMutability":"nonpayable"},{"type":"function","name":"DEFAULT_ADMIN_ROLE","inputs":[],"outputs":[{"name":"","type":"bytes32","internalType":"bytes32"}],"stateMutability":"view"},{"type":"function","name":"MARKET_CREATOR_ROLE","inputs":[],"outputs":[{"name":"","type":"bytes32","internalType":"bytes32"}],"stateMutability":"view"},{"type":"function","name":"allMarkets","inputs":[{"name":"","type":"uint256","internalType":"uint256"}],"outputs":[{"name":"","type":"address","internalType":"address"}],"stateMutability":"view"},{"type":"function","name":"collateral","inputs":[],"outputs":[{"name":"","type":"address","internalType":"address"}],"stateMutability":"view"},{"type":"function","name":"createMarket","inputs":[{"name":"question","type":"string","internalType":"string"},{"name":"category","type":"string","internalType":"string"},{"name":"strikePrice","type":"int256","internalType":"int256"},{"name":"yesWinsIfAbove","type":"uint8","internalType":"uint8"},{"name":"endTime","type":"uint256","internalType":"uint256"},{"name":"initialLiquidity","type":"uint256","internalType":"uint256"}],"outputs":[{"name":"marketId","type":"uint256","internalType":"uint256"},{"name":"market","type":"address","internalType":"address"}],"stateMutability":"nonpayable"},{"type":"function","name":"createMarketDeterministic","inputs":[{"name":"question","type":"string","internalType":"string"},{"name":"category","type":"string","internalType":"string"},{"name":"strikePrice","type":"int256","internalType":"int256"},{"name":"yesWinsIfAbove","type":"uint8","internalType":"uint8"},{"name":"endTime","type":"uint256","internalType":"uint256"},{"name":"initialLiquidity","type":"uint256","internalType":"uint256"},{"name":"salt","type":"bytes32","internalType":"bytes32"}],"outputs":[{"name":"marketId","type":"uint256","internalType":"uint256"},{"name":"market","type":"address","internalType":"address"}],"stateMutability":"nonpayable"},{"type":"function","name":"feeVault","inputs":[],"outputs":[{"name":"","type":"address","internalType":"address"}],"stateMutability":"view"},{"type":"function","name":"getRoleAdmin","inputs":[{"name":"role","type":"bytes32","internalType":"bytes32"}],"outputs":[{"name":"","type":"bytes32","internalType":"bytes32"}],"stateMutability":"view"},{"type":"function","name":"grantRole","inputs":[{"name":"role","type":"bytes32","internalType":"bytes32"},{"name":"account","type":"address","internalType":"address"}],"outputs":[],"stateMutability":"nonpayable"},{"type":"function","name":"hasRole","inputs":[{"name":"role","type":"bytes32","internalType":"bytes32"},{"name":"account","type":"address","internalType":"address"}],"outputs":[{"name":"","type":"bool","internalType":"bool"}],"stateMutability":"view"},{"type":"function","name":"implementation","inputs":[],"outputs":[{"name":"","type":"address","internalType":"contract PredictionMarket"}],"stateMutability":"view"},{"type":"function","name":"marketById","inputs":[{"name":"","type":"uint256","internalType":"uint256"}],"outputs":[{"name":"","type":"address","internalType":"address"}],"stateMutability":"view"},{"type":"function","name":"marketBySalt","inputs":[{"name":"","type":"bytes32","internalType":"bytes32"}],"outputs":[{"name":"","type":"address","internalType":"address"}],"stateMutability":"view"},{"type":"function","name":"marketCount","inputs":[],"outputs":[{"name":"","type":"uint256","internalType":"uint256"}],"stateMutability":"view"},{"type":"function","name":"marketOracle","inputs":[],"outputs":[{"name":"","type":"address","internalType":"contract MarketOracle"}],"stateMutability":"view"},{"type":"function","name":"nextMarketId","inputs":[],"outputs":[{"name":"","type":"uint256","internalType":"uint256"}],"stateMutability":"view"},{"type":"function","name":"oracle","inputs":[],"outputs":[{"name":"","type":"address","internalType":"address"}],"stateMutability":"view"},{"type":"function","name":"outcomeShares","inputs":[],"outputs":[{"name":"","type":"address","internalType":"contract GlobalOutcomeShares"}],"stateMutability":"view"},{"type":"function","name":"predictMarketAddress","inputs":[{"name":"salt","type":"bytes32","internalType":"bytes32"},{"name":"initData","type":"bytes","internalType":"bytes"}],"outputs":[{"name":"","type":"address","internalType":"address"}],"stateMutability":"view"},{"type":"function","name":"renounceRole","inputs":[{"name":"role","type":"bytes32","internalType":"bytes32"},{"name":"callerConfirmation","type":"address","internalType":"address"}],"outputs":[],"stateMutability":"nonpayable"},{"type":"function","name":"revokeRole","inputs":[{"name":"role","type":"bytes32","internalType":"bytes32"},{"name":"account","type":"address","internalType":"address"}],"outputs":[],"stateMutability":"nonpayable"},{"type":"function","name":"supportsInterface","inputs":[{"name":"interfaceId","type":"bytes4","internalType":"bytes4"}],"outputs":[{"name":"","type":"bool","internalType":"bool"}],"stateMutability":"view"},{"type":"function","name":"timelock","inputs":[],"outputs":[{"name":"","type":"address","internalType":"address"}],"stateMutability":"view"},{"type":"event","name":"MarketCreated","inputs":[{"name":"marketId","type":"uint256","indexed":true,"internalType":"uint256"},{"name":"market","type":"address","indexed":true,"internalType":"address"},{"name":"salt","type":"bytes32","indexed":false,"internalType":"bytes32"},{"name":"question","type":"string","indexed":false,"internalType":"string"},{"name":"category","type":"string","indexed":false,"internalType":"string"}],"anonymous":false},{"type":"event","name":"RoleAdminChanged","inputs":[{"name":"role","type":"bytes32","indexed":true,"internalType":"bytes32"},{"name":"previousAdminRole","type":"bytes32","indexed":true,"internalType":"bytes32"},{"name":"newAdminRole","type":"bytes32","indexed":true,"internalType":"bytes32"}],"anonymous":false},{"type":"event","name":"RoleGranted","inputs":[{"name":"role","type":"bytes32","indexed":true,"internalType":"bytes32"},{"name":"account","type":"address","indexed":true,"internalType":"address"},{"name":"sender","type":"address","indexed":true,"internalType":"address"}],"anonymous":false},{"type":"event","name":"RoleRevoked","inputs":[{"name":"role","type":"bytes32","indexed":true,"internalType":"bytes32"},{"name":"account","type":"address","indexed":true,"internalType":"address"},{"name":"sender","type":"address","indexed":true,"internalType":"address"}],"anonymous":false},{"type":"error","name":"AccessControlBadConfirmation","inputs":[]},{"type":"error","name":"AccessControlUnauthorizedAccount","inputs":[{"name":"account","type":"address","internalType":"address"},{"name":"neededRole","type":"bytes32","internalType":"bytes32"}]},{"type":"error","name":"AddressEmptyCode","inputs":[{"name":"target","type":"address","internalType":"address"}]},{"type":"error","name":"AddressInsufficientBalance","inputs":[{"name":"account","type":"address","internalType":"address"}]},{"type":"error","name":"Create2EmptyBytecode","inputs":[]},{"type":"error","name":"Create2FailedDeployment","inputs":[]},{"type":"error","name":"Create2InsufficientBalance","inputs":[{"name":"balance","type":"uint256","internalType":"uint256"},{"name":"needed","type":"uint256","internalType":"uint256"}]},{"type":"error","name":"FailedInnerCall","inputs":[]},{"type":"error","name":"SafeERC20FailedOperation","inputs":[{"name":"token","type":"address","internalType":"address"}]}],"bytecode":{"object":"0x60c034620001bc57601f62001cb038819003918201601f19168301916001600160401b03831184841017620001c05780849261010094604052833981010312620001bc576200004e81620001d4565b620001256200006060208401620001d4565b6200006e60408501620001d4565b6200007c60608601620001d4565b6200008a60808701620001d4565b926200009960a08801620001d4565b93620000b660e0620000ae60c08b01620001d4565b9901620001d4565b96600160065560018060a01b0393848094818094166080521660a0528160018060a01b0319961686600154161760015516846002541617600255168260035416176003558086169485836004541617600455169081620001ac575b50506200011e81620001e9565b5062000259565b506200018d575b6040516119769081620002fa82396080518181816103790152818161094b01528181610b480152610e41015260a0518181816101ef0152818161042c0152818161047701528181610aa401528181610cc001528181610e8a0152610ecd0152f35b806200019d620001a49262000259565b50620001e9565b505f6200012c565b60055416176005555f8062000111565b5f80fd5b634e487b7160e01b5f52604160045260245ffd5b51906001600160a01b0382168203620001bc57565b6001600160a01b03165f8181525f8051602062001c90833981519152602052604090205460ff1662000254575f8181525f8051602062001c9083398151915260205260408120805460ff191660011790553391905f8051602062001c708339815191528180a4600190565b505f90565b6001600160a01b03165f8181527f2412b2af58bf3b93d578a423d333d33fb94fb5093f9cda1aed2eaafb3215f92960205260409020547fd3065a24ad9e7725d223007135762d2902038999e3e5829146654498a58d9795919060ff16620002f357815f525f60205260405f20815f5260205260405f20600160ff1982541617905533915f8051602062001c708339815191525f80a4600190565b50505f9056fe608080604052600436101562000013575f80fd5b5f3560e01c90816301ffc9a7146200123257508063248a9ca314620012045780632f2ff15d14620011cf57806336568abe14620011905780633e27805d1462000c07578063406ef2ef1462000be8578063478222c21462000bbe57806352d84d1e1462000b775780635c60da1b1462000b31578063609615281462000b075780637449a58b1462000ad357806376baf7671462000a8d5780637dc0d1d01462000a6357806391d148541462000a25578063a217fddf1462000a09578063ae42820c14620009cd578063b0866ece14620008b6578063bc37bf551462000882578063d33219b41462000858578063d547741f1462000821578063d8dfeb4514620007f7578063ec97908214620007d85763fc8f40691462000131575f80fd5b346200079c5760e03660031901126200079c5767ffffffffffffffff6004358181116200079c5762000168903690600401620012b2565b90916024359081116200079c5762000185903690600401620012b2565b62000192929192620012e3565b936200019d6200147a565b600654925f955f198514620007c457600185810160065554600254600354604051620003d794909360ff9391926001600160a01b039081169281169116620001e5866200133e565b8a865260208601527f00000000000000000000000000000000000000000000000000000000000000006001600160a01b03166040860152606085015260808401523060a08401523360c08401526200023f368688620013ce565b60e0840190815260448035610100860152919092166101208401526084803561014080860191909152604080516313b9875360e11b60208083019190915260248201819052875195820195909552848701516001600160a01b039081166064830152918701518216938101939093526060860151811660a48401526080860151811660c484015260a0860151811660e484015260c08601511661010483015292516101606101248301529093620003e493859262000303906101a48501906200142c565b9161010081015161014485015260ff610120820151166101648501520151610184830152036200033c601f19918281018652856200138e565b6102b2936040519162000352848701846200138e565b858352838301956200168f8739620003ad6040519182620003a08782019560018060a01b037f0000000000000000000000000000000000000000000000000000000000000000168762001453565b039081018352826200138e565b604051968793620003c78686019889925192839162001409565b8401915180938684019062001409565b010380855201836200138e565b815115620007b25760c4359151905ff5946001600160a01b038616938415620007a05760c4355f90815260086020526040902080546001600160a01b031990811687179091557f00000000000000000000000000000000000000000000000000000000000000006001600160a01b03163b156200079c5760405163bf483fad60e01b8152600481018790525f81602481837f00000000000000000000000000000000000000000000000000000000000000006001600160a01b03165af1801562000791576200077b575b5086895260096020528560408a2091825416179055600754600160401b8110156200076757806001620004e59201600755620012f4565b81546001600160a01b0360039290921b82811b199091169088901b179091556005541680620006fb575b5085969760a49695963562000596575b507fdff5c76b32dc8364f72076b4186bdf4db0555f902917556a67fa4aaeff2c05fe93929162000579916200056a60405195869560c435875260606020880152606087019162001606565b91848303604086015262001606565b0390a3604080519182526001600160a01b03929092166020820152f35b90945060018060a01b03600154166200061a828060405160208101906323b872dd60e01b82523360248201528b604482015260a435606482015260648152620005df8162001371565b519082865af13d15620006f2573d90620005f982620013b1565b916200060960405193846200138e565b82523d85602084013e5b8362001626565b8051908115159182620006c7575b5050620006af5750853b15620006a15760405163f0d677d760e01b815260a43560048201523360248201528181604481838b5af18015620006a457908895949392916200067d575b509490919293946200051f565b819294969395506200068f906200135c565b620006a1579182879492959362000670565b80fd5b6040513d84823e3d90fd5b60249060405190635274afe760e01b82526004820152fd5b8192509060209181010312620006ee5760200151801590811503620006ee575f8062000628565b8280fd5b60609062000613565b88813b15620006a1576040516315d8b4b160e01b8152600481018990526001600160a01b038a166024820152918290604490829084905af180156200075c57156200050f576200074c89916200135c565b62000758575f6200050f565b8780fd5b6040513d8b823e3d90fd5b634e487b7160e01b89526041600452602489fd5b620007889199506200135c565b5f975f620004ae565b6040513d5f823e3d90fd5b5f80fd5b604051633a0ba96160e11b8152600490fd5b604051631328927760e21b8152600490fd5b634e487b7160e01b5f52601160045260245ffd5b346200079c575f3660031901126200079c576020600754604051908152f35b346200079c575f3660031901126200079c576001546040516001600160a01b039091168152602090f35b346200079c576200085662000836366200128a565b90805f525f60205262000850600160405f200154620014f4565b62001593565b005b346200079c575f3660031901126200079c576004546040516001600160a01b039091168152602090f35b346200079c5760203660031901126200079c576004355f526009602052602060018060a01b0360405f205416604051908152f35b346200079c5760403660031901126200079c5760243567ffffffffffffffff81116200079c57366023820112156200079c57620008fe903690602481600401359101620013ce565b6102b2906055600b6020936200099b620009a88660405162000923828601826200138e565b848152818101946200168f863960018060a01b0397604051620009818162000972868201948d7f0000000000000000000000000000000000000000000000000000000000000000168662001453565b03601f1981018352826200138e565b604051958693620003c7868601998a925192839162001409565b010380845201826200138e565b519020604051906040820152600435858201523081520160ff81532060405191168152f35b346200079c575f3660031901126200079c5760206040517fd3065a24ad9e7725d223007135762d2902038999e3e5829146654498a58d97958152f35b346200079c575f3660031901126200079c5760206040515f8152f35b346200079c5762000a36366200128a565b905f525f60205260405f209060018060a01b03165f52602052602060ff60405f2054166040519015158152f35b346200079c575f3660031901126200079c576002546040516001600160a01b039091168152602090f35b346200079c575f3660031901126200079c576040517f00000000000000000000000000000000000000000000000000000000000000006001600160a01b03168152602090f35b346200079c5760203660031901126200079c576004355f526008602052602060018060a01b0360405f205416604051908152f35b346200079c575f3660031901126200079c576005546040516001600160a01b039091168152602090f35b346200079c575f3660031901126200079c576040517f00000000000000000000000000000000000000000000000000000000000000006001600160a01b03168152602090f35b346200079c5760203660031901126200079c576004356007548110156200079c5762000ba5602091620012f4565b905460405160039290921b1c6001600160a01b03168152f35b346200079c575f3660031901126200079c576003546040516001600160a01b039091168152602090f35b346200079c575f3660031901126200079c576020600654604051908152f35b346200079c5760c03660031901126200079c5760043567ffffffffffffffff81116200079c5762000c3d903690600401620012b2565b60243567ffffffffffffffff81116200079c5762000c60903690600401620012b2565b62000c6a620012e3565b9262000c756200147a565b600654935f198514620007c4576001858101600655546002546003546040519360ff9390926001600160a01b0392831692908116911662000cb6866200133e565b89865260208601527f00000000000000000000000000000000000000000000000000000000000000006001600160a01b03166040860152606085015260808401523060a08401523360c084015262000d1036858a620013ce565b60e08401526044356101008401521661012082015260843561014082015262000e1360405180926313b9875360e11b6020830152602060248301528051604483015260018060a01b03602082015116606483015260018060a01b03604082015116608483015260018060a01b0360608201511660a483015260018060a01b0360808201511660c483015260018060a01b0360a08201511660e483015260018060a01b0360c08201511661010483015261014062000de060e08301516101606101248601526101a48501906200142c565b61010083015161014485015261012083015160ff1661016485015291015161018483015203601f1981018352826200138e565b604051906102b28083019183831067ffffffffffffffff8411176200116a57839262000e70926200168f85397f00000000000000000000000000000000000000000000000000000000000000006001600160a01b03169062001453565b03905ff0801562000791576001600160a01b0390811695907f0000000000000000000000000000000000000000000000000000000000000000163b156200079c5760405163bf483fad60e01b8152600481018790525f81602481837f00000000000000000000000000000000000000000000000000000000000000006001600160a01b03165af1801562000791576200117e575b505f85815260096020526040902080546001600160a01b0319168717905560075491600160401b8310156200116a57869362000f48846001899601600755620012f4565b81546001600160a01b0360039290921b82811b199091169088901b17909155600554168062001109575b5060a43562000fc4575b7fdff5c76b32dc8364f72076b4186bdf4db0555f902917556a67fa4aaeff2c05fe93949562000579916200056a6040519586955f875260606020880152606087019162001606565b9350915060018060a01b0360015416620010485f8060405160208101906323b872dd60e01b82523360248201528b604482015260a4356064820152606481526200100e8162001371565b519082865af13d15620006f2573d906200102882620013b1565b916200103860405193846200138e565b82523d5f602084013e8362001626565b8051908115159182620010e2575b5050620006af5750853b156200079c5760405163f0d677d760e01b815260a4356004820152336024820152915f83604481838b5af180156200079157879587957fdff5c76b32dc8364f72076b4186bdf4db0555f902917556a67fa4aaeff2c05fe956200057993620010d0575b5091509594935062000f7c565b620010db906200135c565b8a620010c3565b81925090602091810103126200079c57602001518015908115036200079c57888062001056565b94509250833b156200079c576040516315d8b4b160e01b8152600481018790526001600160a01b0388166024820152935f908590604490829084905af19283156200079157879487941562000f725762001163906200135c565b8862000f72565b634e487b7160e01b5f52604160045260245ffd5b62001189906200135c565b8662000f04565b346200079c57620011a1366200128a565b336001600160a01b03821603620011bd57620008569162001593565b60405163334bd91960e11b8152600490fd5b346200079c5762000856620011e4366200128a565b90805f525f602052620011fe600160405f200154620014f4565b62001516565b346200079c5760203660031901126200079c576004355f525f6020526020600160405f200154604051908152f35b346200079c5760203660031901126200079c576004359063ffffffff60e01b82168092036200079c57602091637965db0b60e01b811490811562001278575b5015158152f35b6301ffc9a760e01b1490508362001271565b60409060031901126200079c57600435906024356001600160a01b03811681036200079c5790565b9181601f840112156200079c5782359167ffffffffffffffff83116200079c57602083818601950101116200079c57565b6064359060ff821682036200079c57565b6007548110156200132a5760075f527fa66cc928b5edb82af9bd49922954155ab7b0942694bea4ce44661d9a8736c68801905f90565b634e487b7160e01b5f52603260045260245ffd5b610160810190811067ffffffffffffffff8211176200116a57604052565b67ffffffffffffffff81116200116a57604052565b60a0810190811067ffffffffffffffff8211176200116a57604052565b90601f8019910116810190811067ffffffffffffffff8211176200116a57604052565b67ffffffffffffffff81116200116a57601f01601f191660200190565b929192620013dc82620013b1565b91620013ec60405193846200138e565b8294818452818301116200079c578281602093845f960137010152565b5f5b8381106200141b5750505f910152565b81810151838201526020016200140b565b90602091620014478151809281855285808601910162001409565b601f01601f1916010190565b6001600160a01b03909116815260406020820181905262001477929101906200142c565b90565b335f9081527f2412b2af58bf3b93d578a423d333d33fb94fb5093f9cda1aed2eaafb3215f92960205260409020547fd3065a24ad9e7725d223007135762d2902038999e3e5829146654498a58d97959060ff1615620014d65750565b6044906040519063e2517d3f60e01b82523360048301526024820152fd5b805f525f60205260405f20335f5260205260ff60405f20541615620014d65750565b90815f525f60205260405f209060018060a01b031690815f5260205260ff60405f205416155f146200158d57815f525f60205260405f20815f5260205260405f20600160ff1982541617905533917f2f8788117e7eff1d82e926ec794901d17c78024a50270940304540a733656f0d5f80a4600190565b50505f90565b90815f525f60205260405f209060018060a01b031690815f5260205260ff60405f2054165f146200158d57815f525f60205260405f20815f5260205260405f2060ff19815416905533917ff6391f5c32d9c69d2a47ea670b442974b53935d1edc7fd64eb21e047a839171b5f80a4600190565b908060209392818452848401375f828201840152601f01601f1916010190565b906200164f57508051156200163d57805190602001fd5b604051630a12f52160e11b8152600490fd5b8151158062001684575b62001662575090565b604051639996b31560e01b81526001600160a01b039091166004820152602490fd5b50803b156200165956fe608060405234610174576102b28038038061001981610178565b9283398101906040818303126101745780516001600160a01b0381168082036101745760208381015190936001600160401b038211610174570184601f820112156101745780519061007261006d836101b1565b610178565b958287528583830101116101745784905f5b8381106101605750505f9186010152813b15610148577f360894a13ba1a3210667c828492db98dca3e2076cc3735a920a3ca505d382bbc80546001600160a01b031916821790557fbc7cd75a20ee27fd9adebab32041f755214dbc6bffa90cc0225b39da2e5c2d3b5f80a28251801561013f575f8091846101269601845af4903d15610136573d61011761006d826101b1565b9081525f81943d92013e6101cc565b505b604051608290816102308239f35b606092506101cc565b50505050610128565b60249060405190634c9c8ce360e01b82526004820152fd5b818101830151888201840152869201610084565b5f80fd5b6040519190601f01601f191682016001600160401b0381118382101761019d57604052565b634e487b7160e01b5f52604160045260245ffd5b6001600160401b03811161019d57601f01601f191660200190565b906101f357508051156101e157805190602001fd5b604051630a12f52160e11b8152600490fd5b81511580610226575b610204575090565b604051639996b31560e01b81526001600160a01b039091166004820152602490fd5b50803b156101fc56fe60806040527f360894a13ba1a3210667c828492db98dca3e2076cc3735a920a3ca505d382bbc545f9081906001600160a01b0316368280378136915af43d5f803e156048573d5ff35b3d5ffdfea264697066735822122076c3199c7755ac722eb92989a4b908f2ffffacdffc2fb2f0b4b3c2e72a5d776f64736f6c63430008180033a26469706673582212202ea7ea1d21bef3df61fdf9c19c0e430d38464b615bde166fdc47aa164f7cb22764736f6c634300081800332f8788117e7eff1d82e926ec794901d17c78024a50270940304540a733656f0dad3228b676f7d3cd4284a5443f17f1962b36e491b30a40b2405849e597ba5fb5","linkReferences":{}},"methodIdentifiers":{"DEFAULT_ADMIN_ROLE()":"a217fddf","MARKET_CREATOR_ROLE()":"ae42820c","allMarkets(uint256)":"52d84d1e","collateral()":"d8dfeb45","createMarket(string,string,int256,uint8,uint256,uint256)":"3e27805d","createMarketDeterministic(string,string,int256,uint8,uint256,uint256,bytes32)":"fc8f4069","feeVault()":"478222c2","getRoleAdmin(bytes32)":"248a9ca3","grantRole(bytes32,address)":"2f2ff15d","hasRole(bytes32,address)":"91d14854","implementation()":"5c60da1b","marketById(uint256)":"bc37bf55","marketBySalt(bytes32)":"7449a58b","marketCount()":"ec979082","marketOracle()":"60961528","nextMarketId()":"406ef2ef","oracle()":"7dc0d1d0","outcomeShares()":"76baf767","predictMarketAddress(bytes32,bytes)":"b0866ece","renounceRole(bytes32,address)":"36568abe","revokeRole(bytes32,address)":"d547741f","supportsInterface(bytes4)":"01ffc9a7","timelock()":"d33219b4"},"id":2}